:108000000C9456400C9473400C9473400C94734041
:108010000C9473400C9473400C9473400C94734014
:108020000C9473400C9473400C9473400C94734004
:108030000C9473400C9473400C9473400C947340F4
:108040000C9473400C9473400C9473400C947340E4
:108050000C9473400C9473400C9473400C947340D4
:108060000C9473400C9473400C9473400C947340C4
:108070000C9473400C9473400C9473400C947340B4
:108080000C9473400C9473400C9473400C947340A4
:108090000C9473400C9473400C9473400C94734094
:1080A0000C9473400C9473400C94734011241FBEC5
:1080B000CFEFCDBFDFE2DEBF10E2A0E0B0E2EAEC3E
:1080C000F9E802C005900D92AE31B107D9F720E270
:1080D000AEE1B0E201C01D92AE39B207E1F70E94F5
:1080E00042410C94E3440C9400403BB78BBFFB012E
:1080F00087913BBF08953BB78BBFFB01879196915A
:108100003BBF08953BB70B0143E20C94E6403BB7FD
:108110008BBFCB0144E20C94E640EE27FF2719BE4B
:10812000DC0143E24093CA0150E42DE90D901D901B
:1081300020933400E89532965A95C1F7112408959A
:108140003BB78BBFCB0145E20C94E6403BB76BBF1E
:10815000FA0119BEDC0140E04093CA0150E8879162
:1081600097918D939D935A95D1F73BBF0895209198
:10817000CF0127FDFCCF22272093CA0108953BB7EA
:10818000882799278BBF40E20C94E6403BB748E133
:108190000C94E6403BB74AE10C94E64041E00C9475
:1081A000F04042E00C94F0408093C40148E02DC0C0
:1081B0008091D00108958093C00188278093C101E8
:1081C0008093C20147E011D0CB010895FC01409398
:1081D000CA012DE920933400E89511243BBF08958E
:1081E000FC014093CA01849108954093CA0128ED8F
:1081F00031E0209334003093CB016091C401709141
:10820000C5018091C601992708954093CA0128EDC0
:1082100031E0209334003093CB01112408959091E4
:10822000C10995FFFCCF8093C00908958091C109D1
:1082300087FFFCCF8091C00908958091C10987FF15
:10824000FCCF2091C0098091C10987FFFCCF8091AC
:10825000C00990E0922B0895EBECF1E081E090E012
:1082600028ED24BF808308958091CF0187FDFCCF46
:108270008091CF0181FF05C086E38093CA010C94F1
:108280002C410895CF93DF93CDB7DEB72997CDBFAB
:10829000DEBF809150008260809350008091510039
:1082A00081FFFCCF88ED84BF81E08093400087E1AF
:1082B0008093C60984EA8093C70919821A821B82B7
:1082C0001C8289819A81AB81BC810196A11DB11D5F
:1082D00089839A83AB83BC8380319742A105B10522
:1082E00080F31092C20988E18093C30983E08093F0
:1082F000C4091092C50980916E06806180936E0654
:1083000080E88093610680E480936206C12CD12CC2
:108310007601212C312C0E941641863509F4A5C026
:1083200080F5883409F4B4C0B0F4833409F4E4C0AF
:1083300040F4813409F4A6C008F007C18B3159F329
:1083400025C3853409F453C008F462C2863409F0A9
:108350001DC380E0ACC2813509F4A8C250F48E344C
:1083600009F4A2C2803509F49AC28C3409F00EC314
:1083700096C2833509F465C008F4A6C08435A1F11E
:1083800005C38C3609F487C2E0F4843609F461C26F
:1083900050F4823609F449C008F0A9C0813609F0CA
:1083A000F5C289E5F4C2873609F466C1883609F456
:1083B00081C2853609F0EAC20E94BF400E94B740E0
:1083C000BAC0833709F456C048F48037B1F1823718
:1083D00009F467C28D3609F0D9C29DC0843779F19E
:1083E0008857823008F0D2C20E94164158C28DE0F0
:1083F0000E940F4180EA96E8A1E0B0E08D839E8361
:10840000AF83B8878D819E81AF81B885AC01BD01F6
:1084100041505109610971094D835E836F837887EB
:10842000892B8A2B8B2B71F7B5C289E50E940F41EE
:1084300080E00E940F4180E8AAC283E5A8C280E0E4
:10844000A6C281E40E940F418BE60E940F4183E7A0
:108450000E940F4182E40E940F418FE60E940F416B
:108460008FE60E940F4184E792C280E30E940F4191
:1084700081E38DC28CE40E940F4185E90E940F4187
:108480008EE185C20E941D416C01E12CF12C07C2D6
:108490008091C10987FFFCCF9091C0098091C109EB
:1084A00087FFFCCFC090C0098091C10987FFFCCF36
:1084B0008091C009D12CE12CF12CFE2CED2CDC2C70
:1084C000CC24E92AC82AEBC1C701B601660F771F81
:1084D000881F991F0E947B40182F3FEFC31AD30AB1
:1084E000E30AF30A892F0E940F41812F50C20E9494
:1084F0001641282E312CD3C10E941641382AC601BC
:10850000880F991FB1010E9482408FEFC81AD80AC4
:10851000E80AF80AC4C1C11490E4D906E104F104E0
:1085200008F034C2C701B601660F771F881F991F74
:108530000E948740B4C18091CF0187FDFCCF80E3CA
:108540008093CA010E942C41AAC10E941D418C0146
:108550000E941641982F7EE1A72E70E2B72E812C43
:10856000912C8016910628F499870E9416419985CE
:1085700001C08FEFF50181935F01FFEF8F1A9F0A12
:1085800020E88216910469F7953409F04AC02C2D31
:108590002F71822F90E05601A81AB90A29870E94EC
:1085A000344129858091CF0187FDFCCF33E330939F
:1085B000CA011092C1011092C2016EE1862E60E2E2
:1085C000962E38016114710439F12093C001F40131
:1085D00081914F018093C401F1E06F1A7108611419
:1085E000710419F02F5F203269F7A092C0018B2D22
:1085F0008F718093C10125E32093CA010E942C4111
:1086000030E2A30EB11C8091CF0187FDFCCF83E344
:108610008093CA0120E0D6CFC00ED11EE11CF11C10
:108620003EC1963499F4B601660F771F16950795EB
:10863000C00ED11EE11CF11C80E090E001E020E8BA
:1086400030E04EE150E20E94D04429C1953509F056
:108650009DC116950795C00ED11EE11CF11C8EE13F
:1086600090E20E948D400E94C6400E94B7400E9446
:10867000CA400E94B74013C10E941D418C010E9454
:1086800016418534C1F5C6011092C2012091CF0177
:1086900027FDFCCFF801E25EFF4D5F012EE1622E67
:1086A00020E2722E9C012E51304249015C2C56185A
:1086B000C401860D971D6A147B0499F0852D860DE3
:1086C0008093C001892F8F718093C10136E0309370
:1086D000CA010E942C418091C401F30181933F01A2
:1086E000E7CFC801AA2797FDA095BA2FC80ED91EBB
:1086F000EA1EFB1E59C0863429F5CC0CDD1CEE1C8D
:10870000FF1C9EE1892E90E2992E26013701580127
:10871000C301B2010E947540F40181934F010E9490
:10872000B740FFEF4F1A5F0A6F0A7F0A21E0A21AD3
:10873000B108A114B10461F73FEFC31AD30AE30AE9
:10874000F30A28C08535B9F526013701440C551CBC
:10875000661C771CBEE1EB2EB0E2FB2E4801C20185
:108760008E5190425C01C5018E0D9F1D0E94CE402E
:10877000F70181937F010E94B740F1E08F1A9108C1
:108780008114910481F7730162012FEFC21AD20A9A
:10879000E20AF20AC8010197C80ED91EE11CF11CB9
:1087A000F694E794D794C794EEE1AE2EE0E2BE2EA5
:1087B000025E1F4D23C0803509F0ADCD2601370183
:1087C000440C551C661C771C7EE1E72E70E2F72EE8
:1087D0004801C2018E5190425C01C5018E0D9F1D62
:1087E0000E94D140F70181937F010E94B740F1E0E0
:1087F0008F1A91088114910481F7C5CFA016B10694
:1088000009F489CDF50181915F010E940F41F6CFF6
:108810000E94164146015701FFEF8F1A9F0AAF0AC7
:10882000BF0A89870E94344123E32093CA01C09282
:10883000C0019D2D9F719093C1011092C201898545
:108840008093C40135E33093CA010E942C418DE02E
:108850001DC0460157018FEF881A980AA80AB80A66
:108860008091CF0187FDFCCFBB27AF2D9E2D8D2D95
:108870008093C0018F718093C1011092C20196E074
:108880009093CA010E942C418091C4010E940F4123
:108890007501640140CD0E9416410E94D4408DE0D4
:1088A00076C00E94D84073C081E001C082E00E947F
:1088B000DB406DC00E941641182F0E94D440115415
:1088C0001630C0F4812F90E09C01220F331FF90174
:1088D000EE5EFF4D40805180612C712CF901EA5F02
:1088E000FF4D80809180A12CB12CFC01E050F04E16
:1088F000208107C023E6812C912C5401412C512C5E
:10890000320180E890E000E010E081149104A104BD
:10891000B10409F434C08038910579F4B301A2019F
:108920008EE190E229870E94A640E0E84E0E511C9D
:10893000611C711C80E090E02985FC01E25EFF4D26
:1089400030810327302F32953027032E3695369508
:108950003025032E369530253770002E012F3695A1
:1089600007943795102D0327069437951025032774
:108970000196F1E08F1A9108A108B108C6CF211124
:1089800005C0812F0E940F41802F01C08FE30E94FC
:108990000F41C1CC88ED84BF81E080937900FFCF87
:1089A000CF92DF92EF92FF926B017C01CA010E948D
:1089B0008D40C701B6010E94A040FF90EF90DF906C
:0A89C000CF900C94B740F894FFCF5D
:1089CA0000006363630000800010000000000000E4
:0E89DA0000900000008000000000000000007F
:040000030000800079
:00000001FF
